:020000040800F2
:10000000A00E002001010008EF2500088D23000844
:10001000ED250008EF010008D344000800000000AF
:10002000000000000000000000000000412C00085B
:10003000F101000800000000F72A0008432C000826
:100040001B0100081B0100081B0100081B01000820
:100050001B0100081B0100081B0100081B01000810
:100060001B010008090200080F0200081B0100081C
:100070001B0100081B0100081B0100081B010008F0
:100080001B0100081B0100081B0100081B010008E0
:100090005D4400081B0100081B0100081B0100084B
:1000A0001B0100081B0100081B0100081B010008C0
:1000B000C12C00081B010008CD2C00081B01000802
:1000C0001B0100081B0100081B0100081B010008A0
:1000D0001B010008B92F00081B0100081B010008C4
:1000E000F30100081B0100081B010008DFF80CD019
:1000F00000F040F800480047A1460008A00E00208C
:100100000648804706480047FEE7FEE7FEE7FEE7B1
:10011000FEE7FEE7FEE7FEE7FEE7FEE7BD2C000890
:10012000ED000008D2B201E000F8012B491EFBD21D
:1001300070470022F6E710B513460A4604461946F2
:10014000FFF7F0FF204610BD30B50B4601460020FA
:100150002022012409E021FA02F59D4205D303FA89
:1001600002F5491B04FA02F52844151EA2F101020A
:10017000F1DC30BD064C074D06E0E06840F00103BD
:1001800094E8070098471034AC42F6D3FFF7B2FF6B
:10019000744700089447000870B58C1810F8015B8C
:1001A00015F0070301D110F8013B2A1106D110F810
:1001B000012B03E010F8016B01F8016B5B1EF9D114
:1001C0002B0705D40023521E0DD401F8013BFAE79A
:1001D00010F8013BCB1A921C03E013F8015B01F805
:1001E000015B521EF9D5A142D8D3002070BDFEE7B5
:1001F000704710B54FF4804000F016F9BDE810408C
:100200004FF4004000F010B9082000F00DB91020A4
:1002100000F00AB910B53C21054801F0D7FD0449AA
:10022000002009684862BDE8104002A004F052B9FD
:100230005C020020B1E0C2EBC6F7B3F5CABCBBAFAD
:10024000CDEAB3C90D0A000072B6FEE702480168A4
:10025000486A00224A6270475C02002010B590F89C
:1002600021100022022905D00421816380F820207A
:10027000012010BD01680B6823F00E030B600168BC
:100280000B6823F001030B6090F84030C46B012130
:1002900001FA03F3636080F8211080F820201046F3
:1002A00010BD000010B590F821100024022903D0E1
:1002B0000421816301243DE001680A6822F00E02F6
:1002C0000A6001680A6822F001020A601A4A01689D
:1002D000914201D1012121E0174A1432914201D10A
:1002E00010211BE0144A2832914201D1891515E0F2
:1002F000114A3C32914201D189140FE00E4A50322A
:10030000914202D14FF4803108E00B4A64329142AD
:1003100002D14FF4801101E04FF08071064A083A93
:100320005160012180F82110002180F82010416BDC
:1003300001B18847204610BD0800024070B5044650
:1003400000F078F90546601C02D0044800780444A7
:1003500000F070F9401BA042FAD370BD6C00002081
:1003600010B54FF400412C4C88420BD12B4800F0C3
:1003700057F90028207802D020F0010030E040F04A
:1003800001002DE04FF48041254A88420BD11046F0
:1003900000F046F90028207802D020F002001FE08B
:1003A00040F002001CE0082802D010280FD018E00E
:1003B0000821104600F034F9617891B900282078BE
:1003C00002D020F010000BE040F0100008E01021F7
:1003D000104600F025F90028207819D020F00800F8
:1003E00020700D49207808310A4648700923812180
:1003F0000C4803F0A3F90849002011310923487083
:10040000C8700A46BDE810408121064803F096B93D
:1004100040F00800E4E70000000000200008014070
:10042000000C0140EC020020044910B50A680242A9
:1004300002D00860FFF794FF10BD000014040140D3
:100440002DE9F84FDFF8B8910024A9F1040B2346F9
:100450000F2709F1040AABF1040EC9E00125A540FC
:100460002A40AA427DD1674ED1F804C0ACEB060801
:10047000B44532D014DCBCF1030F3AD009DCBCF136
:10048000000F2AD0BCF1010F1CD0BCF1020F31D1FA
:100490001DE0BCF1110F17D0BCF1120F2AD119E0E9
:1004A000B8F5881F19D006DCB8F5803F15D0B8F52F
:1004B000801F1FD111E0B8F5001F0ED0B8F5041F42
:1004C00018D10AE0CB6815E0CB681B1D12E0CB68A1
:1004D00008330FE0CB680C330CE08B682BB1012B99
:1004E0004FF0080303D0456104E0042302E00561F6
:1004F00000E00023FF2A01D8064601E000F10406CF
:100500004FEA840501D9A5F12005D6F8008007FA45
:1005100005FC28EA0C0803FA05F548EA0508C6F8C0
:1005200000804D68ED0062D5374DAE6946F001069A
:10053000AE61AD6924F0030605F001050095334D69
:1005400006EB050CDCF80850A607360F07FA06F88C
:1005500025EA0805DFF8B880404503D14FF00008D0
:1005600017E044E0DFF8AC80404502D14FF00108CD
:100570000FE0DFF8A480404502D14FF0020808E008
:10058000DFF89880404502D14FF0030801E04FF0BA
:10059000040808FA06F848EA0508CCF808804D680F
:1005A000D9F80060ED024D4601D5164300E09643B0
:1005B0002E604D68DAF80060AD02554601D516434D
:1005C00000E096432E604D68DBF80060AD035D46A9
:1005D00001D5164300E096432E604D68DEF80060BA
:1005E000ED03754601D5164300E096432E60641C6A
:1005F0000D682A46E5407FF431AFBDE8F88F000072
:1006000008040140000011100010024000000140E9
:1006100000080140000C014000100140001401409E
:100620008068084000D0012070470AB1016170471E
:100630000904FBE701488068704700006C00002057
:100640000248816802781144816070476C00002084
:10065000074810B5016841F010010160032000F067
:1006600079F8002000F006F800F024F8002010BD12
:100670000020024070B50D4D04464FF47A71287881
:10068000B1FBF0F00A490968B1FBF0F001F0CFFAD4
:1006900048B9102C07D200222146501E00F03AF82B
:1006A00000206C6070BD012070BD00006C00002057
:1006B000780000200E4808B5816941F00101816190
:1006C000816901F001010091C16941F08051C1616E
:1006D000C06900F080500090052000F03BF805480C
:1006E000416821F0E06141F00071416008BD000007
:1006F0000010024000000140002809DB00F01F024A
:10070000012191404009800000F1E020C0F8001173
:1007100070470000F0B40E4B1B680C46C3F3022375
:10072000C3F10705042D00D90425191D072901D29D
:10073000002300E0DB1E012606FA05F1491E2140D8
:1007400099409E40761E16403143F0BC03F0D2BE65
:100750000CED00E0064900F0070208684FF6FF03C1
:10076000184040EA0220034A104308607047000026
:100770000CED00E00000FA0510B50C0607D501F0FD
:10078000070101EB810100EBC100103005E001EB36
:10079000810100EBC10000F5A87099B232B10122CD
:1007A00002730181190C4181002010BD00220273E7
:1007B000C180F9E7704701EB810200EBC202D0F87B
:1007C000D402526A02F02BBE01EB810200EBC2029E
:1007D000D0F8D402D2F8642102F084BE70B5044689
:1007E0000B0601F0070000EB800104EBC1014FF0A4
:1007F00001024FF0000502D54A74103103E081F880
:10080000515101F5A871087094F89002012808D0A0
:1008100084F89022206803F0B5FA84F89052002002
:1008200070BD022070BD70B5044601F00F00227942
:10083000904201D9012070BD0B0601F0070000EBCA
:10084000800104EBC1014FF001024FF0000502D519
:100850004A74103103E081F8515101F5A8718D708F
:10086000087094F89002012808D084F8902220683B
:1008700003F025FB84F89052002070BD022070BD6B
:100880002DE9F05F04685FEA424C0B788D69B4F89B
:1008900050C04FF000064BF68F7948F2800A48F6B8
:1008A0008F7B48F2C00E4FF480672AD54FF00208C4
:1008B00008EBC308C44407EB4C07E45BC4F309042A
:1008C000A54203D32D1B8D6101D00BE08E6106681C
:1008D00036F8235005EA090585F4005545EA0A056E
:1008E00026F82350520609D50D78036833F82520E1
:1008F00002EA0B0242EA0E0223F8252084B30A8999
:1009000029E04FF0060808EBC308C44407EB4C0786
:10091000E45BC4F30904A54203D32D1B8D6101D010
:100920000BE08E61066836F8235005EA090585F468
:10093000005545EA0A0526F82350520609D40B78DB
:10094000056835F8232002EA0B0242EA0E0225F878
:1009500023202CB14A8949690068234603F088FDA9
:100960002046BDE8F09F2DE9F05F054600680C4683
:100970005FEA426C16468B692278B0F850C048F6A0
:100980008F774CF280094FF4004B4FF6FF7E4FF407
:10099000806A4FF0000172D54FF0020808EBC208E0
:1009A000E0440AEB480C30F80C00C0F30900834225
:1009B00011D91B1AA3610FD0730407D52E6836F81E
:1009C00022303B4043EA090326F8223094F82420E1
:1009D000012A47D052E1A161607810B1012813D0FB
:1009E0001AE02868B0F85030184400EB0210B0F854
:1009F0000424C2F30902A0F80424B0F8042442F449
:100A00000042A0F8042407E02868B0F850301844E9
:100A100000EB0210A0F804146278286812B1012AD1
:100A200011D018E0B0F850100844217800EB011004
:100A3000B0F80C14C1F30901A0F80C14B0F80C14B0
:100A400041F4004105E0B0F850201044227800EB5A
:100A50000210A0F80C1421782846FFF7ACFE7004B1
:100A600072D40BE1626902446261E2690244E261AC
:100A70002369226A9A4203D31846111A04E03EE021
:100A800084F824100AB110462162617811B101295D
:100A900029D031E02968B1F850201144227801EBC7
:100AA0000211B1F80424C2F30902A1F8042401F2EE
:100AB00004413E2807D94209C30600D1521E0B88C3
:100AC0004BEA822207E048B14208C30700D0521C1B
:100AD0000B880EEA822213430B800DE00A8842F451
:100AE00000420A8008E02968B1F8502011442278B9
:100AF00001EB0211A1F8040483B22289BAE04FF09D
:100B0000060808EBC208E0440AEB480C30F80C0079
:100B1000C0F30900834211D31B1AA3610FD07304E1
:100B200007D42E6836F822303B4043EA090326F802
:100B3000223094F82420012A51D09FE0A1616078EE
:100B400018B1012814D01BE03FE02868B0F85030FD
:100B5000184400EB0210B0F80424C2F30902A0F814
:100B60000424B0F8042442F40042A0F8042407E06E
:100B70002868B0F85030184400EB0210A0F80414B4
:100B80006278286812B1012A11D018E0B0F850102C
:100B90000844217800EB0110B0F80C14C1F30901EE
:100BA000A0F80C14B0F80C1441F4004105E0B0F8C2
:100BB00050201044227800EB0210A0F80C14217889
:100BC0002846FFF7F8FD700458D42278296831F8D8
:100BD0002200384040EA090021F822004EE0626914
:100BE00002446261E2690244E2612369226A9A4234
:100BF00003D31846111A216204E00AB1104621629B
:100C000084F824106278296812B1012A28D02FE0D4
:100C1000B1F850201144227801EB0211B1F80C24F4
:100C2000C2F30902A1F80C2401F20C413E2807D9B5
:100C30004209C30600D1521E0B884BEA822207E00C
:100C400048B14208C30700D0521C0B880EEA82222A
:100C500013430B800CE00A8842F400420A8007E04C
:100C6000B1F850201144227801EB0211A1F80C04D4
:100C7000628983B26169286803F018FC22782968C8
:100C800031F8220048F6BF73184080F0300048F277
:100C90008003184321F822000020BDE8F09F2DE9D1
:100CA000F04104460F0601F0070000EB800104EB61
:100CB000C1014FF001064FF0000502D54E7410310E
:100CC00003E081F8515101F5A871022B08700A6107
:100CD000CB7000D10D7194F89002012809D084F8EE
:100CE0009062206802F0FEFE284684F89052BDE82B
:100CF000F0810220FBE710B501F0070404EB84014A
:100D000000EBC101C1E959230022C1F86C2181F82F
:100D1000512181F85041006801F5A87103F024F9D0
:100D2000002010BD70B504460D4601F00700217982
:100D3000884201D9012070BD29064FF000064FF00E
:100D4000010206D500EB800104EBC1014A741031A9
:100D500007E005EB850104EBC10181F8516101F564
:100D6000A8718A70087094F89002012807D084F85E
:100D70009022206803F0DFF8680702D006E0022026
:100D800070BD04F52671206803F097F884F890622E
:100D9000002070BD10B501F0070404EB840100EBE6
:100DA000C101C1E90923012281F834200B6300232A
:100DB000CB624A7401F8104F006803F0D5F80020A8
:100DC00010BD00001FB50446006803F04DFB010490
:100DD00003D5204601F0BCFC1FBD41050DD52068A0
:100DE00030F8441F21F480610180204600F000F9B2
:100DF0000021204600F017F91FBD410405D52068E9
:100E000030F8441F21F4804174E0810405D5206846
:100E100030F8441F21F400516CE0C10414D520685F
:100E200030F8401F21F004010180206830F8401F95
:100E300021F008010180204600F0EDF8206830F82C
:100E4000441F21F4805155E0010540D5D4F800201D
:100E50000020694632F8203021F81030401CC0B222
:100E60000828F7D332F8400F40F0010010802068C6
:100E700030F8402F22F0010202802068B0F84420B0
:100E80005205FBD530F8442F22F480620280002006
:100E9000236831F8102023F82020401CC0B2082815
:100EA000F6D3206830F8401F41F008010180206827
:100EB00030F8441F21F400610180206830F8401FA1
:100EC00041F004010180204600F0E0F81FBD8105DB
:100ED00009D5206830F8441F21F4007101802046B4
:100EE00000F09DF81FBDC005FCD5206830F8441FF8
:100EF00021F4807101801FBD2DE9F041040004D070
:100F000094F89102002518B107E00120BDE8F081B6
:100F100084F89052204600F04DF8032084F89102A6
:100F20006571206802F0C2FF94E80F0002F028FF0C
:100F3000022698BB0021206803F0B0FA70BB0020A5
:100F400001270BE000EB800104EBC1014F74087432
:100F5000CD740D624D62401CC0B28D622179814218
:100F6000F0D8002012E000BF00EB800104EBC101CB
:100F700081F8515181F8500181F85351C1F8605105
:100F8000C1F86451401CC0B2C1F868512179814256
:100F9000EAD894E80F0002F080FF10B184F8916263
:100FA000B3E7657384F89172206802F074FF002043
:100FB000ACE7000008B500680B49884212D10B4825
:100FC000C16941F40001C161C069002200F4000060
:100FD000009011461420FFF79DFBBDE80840142047
:100FE000FFF78ABB08BD0000005C00400010024013
:100FF00070B5044680790125022801D0FFF724F955
:101000002946D4F8D40202F045FBD4F8D402BDE856
:10101000704002F001BBD0F8D40202F025BBD0F83A
:10102000D40202F02BBB10B5044690F890020128C0
:101030000AD0012084F890026173206803F030FA2E
:10104000002084F8900210BD022010BDD0F8D422F8
:1010500000F52671104602F029BB10B5044690F841
:101060009002012810D0012084F89002206803F03B
:10107000ECF901212046FFF79DFB206802F009FFF3
:10108000002084F8900210BD022010BD10B5044667
:10109000D0F8D40202F049FBA07A002804D003481B
:1010A000016841F00601016010BD000010ED00E094
:1010B0002DE9F84305460078354CC00754D0E06967
:1010C0000026C00008D4E06940F08050E061E0698B
:1010D000012600F0805000902E480168C90512D406
:1010E0000168804641F480710160FFF7A3FA07466A
:1010F00005E000BFFFF79EFAC01B642823D8D8F88C
:101100000000C005F6D5206A10F4407021D0A988EF
:1011100001F4407181421CD0206A1F49012220F451
:1011200040700A6000220A602062C00711D0FFF7F9
:1011300081FA074641F2883808E000BFFFF77AFAE3
:10114000C11B414502D90320BDE8F883206A80070E
:10115000F4D5206A696820F44070084320621EB10B
:10116000E06920F08050E0612878800705D560684C
:10117000A96820F44040084360602878C00605D57F
:101180006068E96820F48000084360600020DBE7C5
:101190000010024000700040400442422DE9F04738
:1011A0000F46050061D0434E306800F00700B8429A
:1011B00009D2306820F0070038433060306800F012
:1011C0000700B84251D128683B4C810712D540072F
:1011D00003D5606840F4E06060602878000703D5BC
:1011E000606840F4605060606068A96820F0F000BA
:1011F000084360602878C00728D06868012810D0AC
:101200002168022810D0890700292EDA616821F0B0
:10121000030101436160FFF70DFA804641F288390E
:101220000DE021688903EFE78901EDE7FFF702FA96
:10123000A0EB0801494502D90320BDE8F0876068AA
:10124000696800F00C00B0EB810FEFD1306800F05E
:101250000700B8420BD9306820F0070038433060EF
:10126000306800F00700B84201D00120E5E7287897
:10127000400705D56068E96820F4E06008436060D5
:101280002878000706D56068296920F4605040EA94
:10129000C100606000F038F86168084AC1F30311CA
:1012A000515CC8400649086006480068FFF7E2F94B
:1012B0000020C2E700200240001002405A47000808
:1012C0007800002070000020044805490068496843
:1012D000044AC1F30221515CC840704778000020E5
:1012E000001002406A470008044805490068496840
:1012F000044AC1F3C221515CC84070477800002005
:10130000001002406A4700080E4A51680E4801F07A
:101310000C03042B11D0082B0FD10C48C1F38343CD
:10132000C903C05C0AD55168084AC1F34041921E06
:10133000515C054A5043B0FBF1F070470449484303
:10134000704700000010024000127A004A4700086F
:1013500000093D002DE9F84F040070D02078C04D01
:10136000C00749D06868C0F38100012807D06868C9
:10137000C0F38100022809D16868C00306D5286837
:10138000800339D560680028E7D035E06068B0F5A3
:10139000803F0BD010B1B0F5A02F11D0286820F4F9
:1013A00080302860286820F4802002E0286840F41B
:1013B00080302860606890B1FFF73CF906460AE08B
:1013C000286840F480202860F0E700BFFFF732F97A
:1013D000801B642873D828688003F7D50CE0FFF7DA
:1013E00029F9064605E000BFFFF724F9801B6428B1
:1013F000F0D828688003F7D420789A4E80074FF001
:1014000001094FF0000839D5686810F00C0F07D0BB
:101410006868C0F38100022809D16868C00306D457
:101420002868800714D52069012808D110E02069B8
:10143000B0B1C6F80090FFF7FDF8074605E00AE1F5
:10144000FFF7F8F8C01B0228C4D828688007F7D532
:101450002868616920F0F80040EAC10028600DE0CA
:10146000C6F80080FFF7E6F8074604E0FFF7E2F869
:10147000C01B022823D828688007F7D420780007EB
:101480002CD57948A169D9B1C0F80090FFF7D2F8FE
:10149000074604E0FFF7CEF8C01B02280FD8686AA1
:1014A0008007F7D571484FF4FA510068B0FBF1F0AE
:1014B000009000BF0098411E0091FAD20EE080E03B
:1014C000C0F80080FFF7B6F8074604E0FFF7B2F86F
:1014D000C01B022875D8686A8007F7D420784007B7
:1014E00060D5E8690027C00008D4E86940F0805062
:1014F000E861E869012700F0805000905C480168CD
:10150000C90513D40168834641F480710160FFF777
:1015100091F8824606E000BFFFF78CF8A0EB0A00C6
:1015200064284ED8DBF80000C005F5D5E068012836
:101530000AD008B1052813D0286A20F001002862DB
:10154000286A20F0040002E0286A40F001002862C6
:10155000E06841F2883B98B1FFF76CF882460BE0F7
:10156000286A40F004002862EEE700BFFFF762F847
:10157000A0EB0A0159455AD8286A8007F6D50CE035
:10158000FFF758F8824605E0FFF754F8A0EB0A0190
:1015900059454CD8286A8007F6D41FB1E86920F075
:1015A0008050E861E06988B36968C1F3810102296C
:1015B00044D00228C6F8608004D0FFF73BF8044608
:1015C00038E034E0FFF736F8074604E0FFF732F87A
:1015D000C01B02282BD828688001F7D4206AB0F5F8
:1015E000803F05D16868A16820F400300843686036
:1015F000D4E908010843696821F47411084368605C
:10160000C6F86090FFF716F8044606E025E000BF34
:10161000FFF710F8001B022809D828688001F7D5C9
:101620001BE000BFFFF706F8001B022802D90320C9
:10163000BDE8F88F28688001F4D40EE00128F7D0C7
:101640006868226A00F48031914204D1616A00F432
:101650007010884201D00120EAE70020E8E700008E
:101660000010024000004242800442427800002004
:101670000070004070B5040009D0606A002540B1D8
:1016800025616561A56294F8510040B10CE001202C
:1016900070BD6068B0F5827FF4D0E561F2E784F850
:1016A0005050204600F040F8022084F85100206895
:1016B000016821F040010160A088218900F4827056
:1016C00001F404410843A18901F400610843217C2D
:1016D00001F002010843217D01F001010843218B43
:1016E00001F400710843217F01F03801084394F8A8
:1016F000201001F080010843218D01F400510843BE
:1017000021680860A069042101EA1040216848604E
:101710002068C16921F40061C1616565012084F818
:101720005100002070BD000000B585B0002100917F
:1017300001910291039100680F4988421AD10F4824
:10174000816941F480518161816901F48051049182
:10175000816941F0040181618069694600F00400FB
:101760000490A020009002200190032003900448E0
:10177000FEF766FE05B000BD0030014000100240DB
:10178000000801402DE9F84F044690F851001D462D
:1017900016460F46012838D160684FF00408B0F5AE
:1017A000827F01D1A06830B3FEF744FF8246002F4C
:1017B00075D0002E73D094F85000012825D04FF03A
:1017C000010984F8509084F851804FF00008C4F863
:1017D0005480A763A687E687C4F83080A4F83480D5
:1017E000A4F83680C4F84080C4F84480A068B0F5FE
:1017F000004F0CD015E084F85180009313460A4640
:10180000204600F01CF9BDE8F88F0220FBE72068B5
:10181000016821F0400101602068016821F48041E5
:10182000016020680168490603D4016841F0400165
:101830000160E068C0B134E020688168C90709D060
:10184000007BA16B0870A06B401CA063E08F401E62
:10185000E08709E0FEF7EEFEA0EB0A00A84202D303
:10186000681C01D032E085B3E08F0028E4D11BE092
:1018700020688168C90709D0C068A16B0880A06B87
:10188000801CA063E08F401EE0870AE0FEF7D2FED6
:10189000A0EB0A00A84203D3681C02D016E012E0B5
:1018A0009DB1E08F0028E3D152462946204601F041
:1018B00023F908B12020606584F8519084F85080A5
:1018C000606D00289FD001209DE7FFE784F85190CC
:1018D00084F85080032096E72DE9F84F9846164685
:1018E0008A460446FEF7A6FE814694F85100012878
:1018F0001ED1BAF1000F73D0002E71D094F85000B1
:10190000012815D0012784F85070032084F8510075
:1019100000256565C4F830A0A686E686A563A58780
:10192000E58765642564A068B0F5004F03D00CE03E
:101930000220BDE8F88F2068016821F040010160B5
:101940002068016841F4804101602068016849060F
:1019500003D4016841F040010160E068B0F5006F18
:10196000606803D048B3012E27D047E008B1012EAC
:101970001FD1206B21680088C86006E0206881685C
:10198000890709D5216B0988C160206B801C206301
:10199000E08E401EE0860CE0FEF74CFEA0EB090155
:1019A000414503D3B8F1FF3F03D035E0B8F1000F54
:1019B00032D0E08E0028E1D123E0206B216800784E
:1019C000087306E02068816889070AD5216B0978C9
:1019D0000173206B401C2063E08E401EE0860DE00A
:1019E0002BE0FEF727FEA0EB0901414503D3B8F138
:1019F000FF3F03D010E0B8F1000F0DD0E08E0028BB
:101A0000E0D14A464146204601F0A4F808B1202022
:101A10006065A06830B109E084F8517084F85050D6
:101A2000032086E72068C1688068009084F85170C0
:101A300004F8505F60680028F3D0012079E72DE9B1
:101A4000FF4F81B01D46934604464FF001090E9E9C
:101A5000FEF7F0FD074694F851006168012806D0B2
:101A6000B1F5827F3CD1A168C9BB042838D1029866
:101A7000002871D0BBF1000FFBD0002DF9D094F8F5
:101A8000500001282CD04FF0010A84F850A094F89F
:101A90005100042802D0052084F851004FF00008BE
:101AA000C4F85480C4F838B0E587A587029921634B
:101AB000E586A586C4F84080C4F8448020680168A3
:101AC000490603D4016841F040010160E068B0F5C7
:101AD000006F606808D0F0B3012D49D081E0FFE7C6
:101AE000022005B0BDE8F08F08B1012D39D1206B7F
:101AF00021680088C860206B801C2063E08E401E37
:101B0000E0862EE02068816889070FD5E18E69B1F3
:101B1000B9F1010F0AD1216B0988C160206B801CCB
:101B20002063E08E401EE0864FF000092068816847
:101B3000C9070CD0E18F51B1C068A16B0880A06BC0
:101B4000801CA063E08F401EE0874FF00109FEF784
:101B500071FDC01B01E00BE067E0B04201D3701CD7
:101B600050D1E08E0028CDD1E08F0028CAD13EE0D0
:101B7000206B216800780873206B401C2063E08E86
:101B8000401EE0862DE02068816889070FD5E18E30
:101B900069B1B9F1010F0AD1216B09780173206B8A
:101BA000401C2063E08E401EE0864FF00009206854
:101BB0008168C9070CD0E18F51B1C068A16B087072
:101BC000A06B401CA063E08F401EE0874FF001092E
:101BD000FEF730FDC01BB04202D3701C01D011E0F3
:101BE00086B1E08E0028CED1E08F0028CBD13A46D6
:101BF0003146204600F0AEFF50B12020606584F8E9
:101C0000508012E084F851A084F85080032068E7E7
:101C1000A06818B92068C1688068009084F851A055
:101C200084F85080606D0028F1D0012059E710B58C
:101C3000401EB0F1807F01D3012010BD4FF0E024A1
:101C400060610F21601702F055FC0020A0610720A1
:101C50002061002010BD70477047000070B590F8FB
:101C60003C20012A26D0012480F83C40022280F842
:101C70003D2003685A689D6822F070060A68324366
:101C80005A600D4B02689A4208D0B2F1804F05D0DD
:101C90000A4B9A4202D00A4B9A4204D1496825F075
:101CA00080031943916080F83D40002180F83C108A
:101CB000084670BD022070BD002C014000040040A9
:101CC000000800402DE9F0410D46040003D094F8CF
:101CD0003D0018B108E00120BDE8F081002084F843
:101CE0003C00204600F040F8022084F83D002068C7
:101CF000816844F2070291438160211D206800F051
:101D0000EBFF226890689169166A2B68AF690343FC
:101D100040F20330814341EA0721A868EF69084394
:101D20004FF6FC418843E96840EA072001432869EF
:101D30002F6A000140EA0730084369686D6926F0A0
:101D4000220646EA0515294393602268906154F8FB
:101D5000460B0162012004F81F09E0752076E07649
:101D60002077A0750020B7E700B585B0002100916D
:101D70000191029103910068114988421ED11148D6
:101D8000C16941F00401C161C16901F0040104911C
:101D9000816941F0080181618069694600F00800AD
:101DA0000490C02000900848FEF74AFB0122002161
:101DB0001E20FEF7AFFC1E20FEF79EFC05B000BD06
:101DC0000008004000100240000C014070B590F87F
:101DD0003E60044690F83F5090F8423090F843201F
:101DE000022021B104290ED0012E1BD114E0012EB6
:101DF00018D1012B16D184F83E0084F8420001224C
:101E00000021206820E0012D0CD1012A0AD184F89C
:101E10003F0084F8430014E0012D03D1012B01D1D0
:101E2000012A01D0012070BD84F83E0084F83F00F3
:101E300084F8420084F8430001220021206800F069
:101E400087FF01220421206800F082FF20680168DA
:101E500041F001010160002070BD70472DE9F041A3
:101E600004460068C66805694FF00007A90713D546
:101E7000B10711D5F91E0161012020772068806922
:101E80008007204602D0FFF7E8FF04E000F07EF86C
:101E9000204600F07CF82777680716D5700714D520
:101EA00021686FF0040008610220207720688069B3
:101EB00010F4407F204602D0FFF7CFFF04E000F08F
:101EC00065F8204600F063F82777280715D5300716
:101ED00013D521686FF0080008610420207720687E
:101EE000C0698007204602D0FFF7B7FF04E000F08A
:101EF0004DF8204600F04BF82777E80616D5F00697
:101F000014D521686FF01000086108202077206840
:101F1000C06910F4407F204602D0FFF79EFF04E026
:101F200000F034F8204600F032F82777E80708D0B0
:101F3000F00706D021686FF001000861204600F02C
:101F400027F8280608D5300606D521686FF08000EE
:101F500008612046FFF77FFE680608D5700606D5A3
:101F600021686FF040000861204600F012F8A806D2
:101F70000AD5B00608D521686FF020000861204618
:101F8000BDE8F041FFF768BEBDE8F08170477047DB
:101F90007047704770477047F8B501680446086895
:101FA000CA684B6910F00F0F4FF0000559D003F0CD
:101FB000010602F49077374365D0C10705D0D105FB
:101FC00003D5616C41F001016164410705D5D90772
:101FD00003D0616C41F002016164810705D5D90726
:101FE00003D0616C41F004016164010707D502F080
:101FF0002001314303D0616C41F008016164616CE0
:1020000000293AD0800604D5900602D5204600F07B
:10201000DBFE20684069616CC0F38010090700D4C2
:1020200060B3204600F0A9FE20684069400621D533
:102030002068143050E8001F21F0400140E80012F1
:10204000002AF5D1E06BA8B16D494163E06BFEF762
:1020500029F9002811D0E06B416B01B0BDE8F040D8
:10206000084783060FD593060DD52046BDE8F840F6
:1020700000F0AABE2046FFF78EFFF8BD2046FFF70E
:102080008AFF6564F8BD266B2023012E7CD1C6062D
:102090007AD5D60678D508684868009048694FF028
:1020A0000206400640D5E16B086840680004000C59
:1020B000E8D0A28D8242E5D9E085886920282DD01C
:1020C00020680C3050E8001F21F4807140E80012B5
:1020D000002AF5D12068143050E8001F21F00101DA
:1020E00040E80012002AF5D12068143050E8001FA3
:1020F00021F0400140E80012002AF5D184F8423076
:10210000256320680C3050E8001F21F0100140E8E2
:102110000012002AF5D1E06BFEF7A0F86663A08DEF
:10212000E18D401A81B22AE0A08DE18D401A81B282
:10213000E08D0028A6D00029A4D022680C3252E8F5
:10214000000F20F4907042E80007002FF5D12068BE
:10215000143050E8002F22F0010240E80027002F41
:10216000F5D184F84230256320680C3050E8002F08
:1021700022F0100240E80023002BF5D166632046D0
:10218000FFF708FFF8BDFFE705062BD5150629D593
:1021900094F841002128F5D1A068B0F5805F01D105
:1021A0002069B0B1206A411C216221680078486032
:1021B000E08C401E0004000CE084E3D12068C1687C
:1021C00021F08001C1602068C16841F04001C16018
:1021D000D8E7206A0088C0F308004860206A801CA5
:1021E0002062E5E74006CDD55006CBD5CA6820462B
:1021F00022F04002CA6084F8413000F0C6F8C1E71E
:102200006B2D000870B5040004D094F8410000253F
:1022100010B106E0012070BD84F84050204600F067
:1022200023F8242084F841002068C16821F400517B
:10223000C160204600F02AFE2068016921F4904127
:1022400001612068416921F02A0141612068C1686B
:1022500041F40051C1606564202084F8410084F895
:1022600042006563002070BD30B585B00024009445
:102270000194029403940068184988422CD11848AC
:10228000816941F480418161816901F48041049157
:10229000816941F0040181618069124D00F0040000
:1022A00004904FF4007000900220019003200390EE
:1022B00069462846FEF7C4F82815CDE900046946AA
:1022C00028460294FEF7BCF8002201212520FEF7E3
:1022D00021FA2520FEF710FA05B030BD0038014084
:1022E000001002400008014070472DE9F843044601
:1022F00090F84100984616460D46202802D002204C
:10230000BDE8F88385B17EB100206064212084F8A7
:102310004100FEF78FF9A6848146E684A068202755
:10232000B0F5805F02D003E00120E9E7206910B139
:102330002E4600250EE000260CE08021204600F00D
:1023400001FEA8B9C6B116F8010B21684860E08CFF
:10235000401EE084E08C4B464FF00002CDF8008038
:102360000028EAD14FF04001204600F0EBFD40B1DB
:1023700084F841700320C3E735F8020BC0F308006E
:10238000E3E784F841700020BAE77047FEE70000F9
:10239000F0B500230A24302537261F4611E000BF80
:1023A000B4EB107F02D905EB107C01E006EB107C4A
:1023B00001F813C001EB430C00015B1C8CF80170A9
:1023C000DBB29342ECD3F0BDF0B585B000243848C1
:1023D0000094019402940394816941F02001816189
:1023E000816901F020010491816941F0040181615A
:1023F000816901F004010491816941F00801816162
:1024000080692C4E00F00800049000220C21304618
:10241000FEF70BF94FF4817001258DE83100694614
:102420003046FEF70DF80C20CDE900050220CDE97D
:10243000024069463046FEF703F84020CDE900042B
:10244000694630460294FDF7FBFF4FF430408DE8BB
:102450003100194F69463846FDF7F2FF44F2180083
:10246000164C8DE8310069463846FDF7E9FFE80370
:102470008DE8310069463046FDF7E2FF0022114643
:102480000920FEF747F90920FEF736F9002201215D
:102490000A20FEF73FF90A20FEF72EF9002201215B
:1024A0002820FEF737F92820FEF726F905B0F0BD01
:1024B0000010024000080140000C014000003110F3
:1024C000114810B50F4901604FF4827141604FF41B
:1024D000004181600021C1604FF400720161C0E9D8
:1024E00005123022C0E90721416281620A21C162DE
:1024F000FFF7C0F8002803D0BDE81040FDF7A4BEE8
:1025000010BD000000300140BC01002010B58CB0AF
:1025100024216846FDF70DFE00241548099413494F
:102520000A94C0E900144FF6FF71C0E9024104614A
:1025300084610120CDE90004CDE902040494CDE9D1
:102540000540079469460A480894FFF7BBFB08B1A9
:10255000FDF77AFE099409A905480A94FFF77EFB66
:10256000002801D0FDF770FE0CB010BD000800403F
:102570005C0200200C4810B50A4901604FF4E131BB
:102580004160002181600C22C160C0E904128161B8
:10259000C161FFF737FE002803D0BDE81040FDF70A
:1025A00053BE10BD00380140A402002010B5002227
:1025B0000B490C4800F00CFF08B1FDF745FE0A4935
:1025C000084801F0D8F808B1FDF73EFE054801F0D3
:1025D00027F9002803D0BDE81040FDF735BE10BD37
:1025E0001C000020EC02002080000020FEE7FEE737
:1025F00010B504465A21092000F092F821460D201A
:1026000000F08EF821460E2000F08AF80021BDE887
:102610001040092000F084B810B5012208210348B9
:10262000FEF703F800BF00BF10BD00000008014026
:1026300008B500F069F80120FDF780FEFFF7ECFF18
:102640000120FDF77BFE6946002000F03DF818B937
:102650009DF80000302801D0002008BD5A21092033
:1026600000F05EF815210D2000F05AF815210E201B
:1026700000F056F80021092000F052F802A001F005
:1026800029FF012008BD000050415733323132206C
:10269000496E6974204F4B0D0A000000F8B50E46D4
:1026A000054614466946022000F00EF89DF8000029
:1026B000294600F080002070032000F005F8314624
:1026C000042000F001F8F8BDF8B500F07F000E46D8
:1026D0008DF8000000F018F84FF0FF352B4601226E
:1026E00069460848FFF7F8F8040003D0FFF794FFA5
:1026F0002046F8BD2B46012231460248FFF742F83A
:102700000446F3E7BC01002010B50022082103486D
:10271000FDF78BFF00BF00BF00BF10BD00080140E8
:1027200038B540F080008DF800008DF80110FFF7FB
:10273000EBFF4FF0FF33022269460448FFF7CCF865
:102740000446FFF769FF204638BD0000BC010020A9
:102750002DE9F84F044640F68F7B48F60F794FF489
:1027600080684FF0000ABDE1B0F8441011F00F0589
:1027700039D030F8256031047ED530F8251001EAD3
:102780000B0141F0800120F8251005EB850004EBDA
:10279000C00797F85C0107F5A87700286DD0F87896
:1027A00002286BD03978226832F8210048F68F73FE
:1027B000184048F2C003184322F8210039782068F5
:1027C00030F82120B0F8503052047DD5022202EBBF
:1027D000C1015A1808EB4201415A8905890D00913F
:1027E00073D03A89DDE0C9062BD4018801EA0901DA
:1027F00041F400410180206804F11005B0F8503028
:10280000217C022202EBC1015A1808EB4201405A16
:10281000C0F30900E062616A08446062002120465A
:10282000FDF7C9FF607B00289DD0A86900289AD1D8
:10283000607B216840F08000A1F84C0084F80DA076
:1028400050E1018804F5A8750A0521D5B0F850209B
:102850002B78062101EBC3010A4408EB4201405AE0
:1028600004F52671C0F30903EB61EA88206801F0E2
:10287000FFFD2068018802E0AEE06EE07EE001EA44
:102880000B0141F0800101802046FEF7DFFB29E1CA
:102890000904D5D5018801EA0B0141F080010180CE
:1028A0002068B0F850202B78062101EBC3010A44C0
:1028B00008EB4201405A83059B0DEB6110D069691A
:1028C00071B1EA88206801E05FE05DE001F0D0FDD1
:1028D000E96968690844686100212046FDF774FFD2
:1028E000216808880205ABD4C0F301300328A7D0C3
:1028F000B1F850000844B0F80C14C1F30901A0F875
:102900000C142A6900F20C403E2A09D95109D2065A
:1029100000D1491E02884FF4004343EA812109E0B7
:10292000B2B15108D20700D0491C02884FF6FF739C
:1029300003EA81210A430280216808884BF68F72DE
:10294000104080F4405048F2800210430880C9E0F3
:10295000018841F400410180EEE72068B0F8502082
:102960003B78062101EBC3010A4408EB4201415ABE
:102970008905890D009118D0FA8812E0324639464F
:102980002046FDF77DFF00900FE0062202EBC1011B
:102990005A1808EB4201415A8905890D009104D06B
:1029A0007A897969009B01F063FDF8690099084410
:1029B000F8617969009808447861B86918B1396993
:1029C0000098814204D939782046FDF7FDFE03E0E6
:1029D0003946206801F0C8FA30062ED505EB85008F
:1029E00004EBC001206830F8252002EA090242F415
:1029F000004220F82520C87C103101281ED0F005A7
:102A00006CD42068B0F850300D78022202EBC50279
:102A10001A4408EB4202805A8A69C0F309008242D4
:102A200055D9121A8A6154D04A6902444A61CA6966
:102A30001044C861206801F097FA53E0C1F818A06B
:102A4000087B524608B3700620D5487810B101289B
:102A500012D03AE02068B0F8502010440A7800EB19
:102A60000210B0F80424C2F30902A0F80424B0F85C
:102A7000042442F4004206E02068B0F850301844C4
:102A80000B7800EB0310A0F804241EE04B782068BC
:102A900013B1012B11D018E0B0F8502010440A787F
:102AA00000EB0210B0F80C24C2F30902A0F80C24C9
:102AB000B0F80C2442F4004205E0B0F8503018445D
:102AC0000B7800EB0310A0F80C24097802E0C1F8A1
:102AD00018A0E9B22046FDF76EFE03E0324620461C
:102AE000FDF741FF2068B0F8441009043FF53CAE03
:102AF0000020BDE8F88F7047F8B5044640684FF4F1
:102B00008273984217D1A0684FF48065B0F5004FEA
:102B100001D0A8420FD12068066826F04006066062
:102B20006068984207D1A068A84204D100920B4681
:102B30000022012103E000920B4600228021204662
:102B400000F022F8002804D0606D40F0200060659D
:102B50000320F8BDF8B515460E460B460092044614
:102B60000122022100F010F840B9334600228021F2
:102B70002046009500F008F8002804D0606D40F071
:102B8000200060650320F8BD2DE9F8431E469146FC
:102B900088460446089DFDF74DFD401B351AFDF79C
:102BA00049FD074625480068C0F3CB30684338E04C
:102BB000701C37D0FDF73EFDC01BA84203D215B1F3
:102BC000009860B32CE02068416821F0E00141608A
:102BD0006068B0F5827F0BD1A068B0F5004F02D0DD
:102BE000B0F5806F04D12068016821F040010160D8
:102BF000A06AB0F5005F09D12068016821F4005196
:102C000001602068016841F400510160012084F8EE
:102C10005100002084F850000320BDE8F88300250F
:102C2000401E00902068816838EA010004D000212D
:102C30004945BDD10020F0E70121F9E778000020E7
:102C40007047FDF7FDBC30B593B028216846FDF70D
:102C500070FA14210AA8FDF76CFA002401200F94E1
:102C600010941194010412948DE8130004904FF411
:102C7000E010CDE90810022507956846FEF76AFBCB
:102C800008B172B6FEE70F20CDE90A054FF4806067
:102C9000CDE90C4002210AA80E94FEF77FFA08B194
:102CA00072B6FEE710200F9012940FA8FEF700FAFC
:102CB000002801D072B6FEE713B030BD70470000A7
:102CC0000148FFF7CBB80000140200200148FFF7CD
:102CD000C5B800005C020020F0B50268194B1A4C20
:102CE0001A4D4FF08047984205D0B84203D0A04219
:102CF00001D0A84203D122F070064A6832439842BC
:102D000005D0B84203D0A04201D0A84203D122F49A
:102D10004074CA6822434C6922F080022243026058
:102D20008A68C2620A688262984201D109690163B5
:102D3000012141610169C90703D0016921F0010145
:102D40000161F0BD002C014000040040000800407B
:102D500010B501F01F030121046A99408C430462FD
:102D6000016A9A401143016210BD10B5406A00210A
:102D7000C185C184FFF70FF910BD01680C3151E81E
:102D8000002F22F4907241E80023002BF5D1016856
:102D9000143151E8002F22F0010241E80023002BFA
:102DA000F5D1016B012909D101680C3151E8002FDF
:102DB00022F0100241E80023002BF5D1202180F8F9
:102DC000421000210163704708B590F84210222993
:102DD00001D0022008BD82684FF480539A4201D18D
:102DE000016921B1816A9A421BD04AB10AE00268A6
:102DF000816A5268C2F308020A80816A891C08E06D
:102E0000026972B10268526802F07F020A70816A38
:102E1000491C8162C18D491E0904090CC18503D07A
:102E20001BE002685268F1E70168CA6822F02002DC
:102E3000CA600168CA6822F48072CA6001684A697F
:102E400022F001024A61202180F8421000214163F2
:102E5000026B012A03D0FFF747FA002008BD016387
:102E600001680C3151E8002F22F0100241E80023E4
:102E7000002BF5D101680A68D20602D50A684968B4
:102E80000091818DFFF786F8E7E7000070B50446F2
:102E900000680169E26821F4405111430161216930
:102EA000A0680843616908432168CA6841F20C635D
:102EB0009A430243CA6020684169A26921F44071C3
:102EC000114341611E492068884202D1FEF70CFA85
:102ED00001E0FEF7F9F900EBC00101EB00126068B8
:102EE00064218000B2FBF0F3B3FBF1F36FF018063E
:102EF0007343B2FBF0F5B2FBF0F605EB830532232A
:102F000003EB0515B5FBF1F5B6FBF1F605F0F005A1
:102F100005EB0615B2FBF0F6B2FBF0F0B0FBF1F0FA
:102F20006FF01802504306EB800003EB0010B0FB7B
:102F3000F1F0216800F00F002844886070BD0000A7
:102F4000003801402DE9F843984617460D460446DF
:102F5000089E24E0701C22D0FDF76CFBA0EB08005B
:102F6000B0421AD8CEB12068C168490717D5802D64
:102F700015D0402D13D00168C94309070FD401684B
:102F80000025406800902046FFF7F7FE08206064A7
:102F900084F840500120BDE8F8830320FBE7206857
:102FA000006835EA000004D00020B842D2D00020EA
:102FB000F1E70120F9E700000148FEF7EDBF00004E
:102FC000A402002010B5D0F8B42252689047002027
:102FD00010BD134610B50A46002100F014FB002076
:102FE00010BD134610B50A46002100F0A7FB0020D3
:102FF00010BD10B50446802100F085FB2046BDE8D9
:103000001040002100F07FBB10B505210023C0F85F
:1030100094121A46194600F0F6FA002010BD10B5B9
:103020000223C261C0F89432026213460A460021AC
:1030300000F084FB002010BD10B504210023C0F86F
:1030400094121A46194600F079FB002010BD0000CA
:1030500010B50A46024903A000F0E2F8004810BD8E
:10306000B005002048494420436F6E666967000040
:1030700012200880004870473C00002010B50A4626
:10308000024903A000F0CCF8004810BDB0050020B4
:1030900048494420496E74657266616365000000AA
:1030A00004200880004870473800002010B50A4608
:1030B000024903A000F0B4F8004810BDB00500209C
:1030C00053544D6963726F656C656374726F6E699A
:1030D0006373000010B50A46024903A000F0A0F88F
:1030E000004810BDB005002053544D3332204875C0
:1030F0006D616E20696E74657266616365000000C3
:1031000010B51A2008800A480168001D0468001DD7
:103110000068081809D008220649FFF739F905495F
:10312000042210312046FFF733F90248801E10BDFB
:10313000E8F7FF1F52000020F8B504460020ADF864
:10314000000048880D46010A082948D2DFE801F04E
:103150004704091747473C45D4F8B012207C0A6859
:1031600019E0207C02260028D4F8B40205D0C16AF8
:1031700068468847014646703EE0816AF8E7C0B27B
:1031800006282CD2DFE800F0030A1014181CD4F82B
:10319000B002426805E0694690471CE0D4F8B002EE
:1031A0008268E2B1207CF6E7D4F8B002C268F8E7A2
:1031B000D4F8B0020269F4E7D4F8B0024269F0E74B
:1031C000D4F8B0028269ECE7207C40B9D4F8B402AC
:1031D000416B6846884701460EE0207C20B12946B5
:1031E0002046FFF706FFF8BDD4F8B402016B68462D
:1031F0008847014607204870BDF8000048B1EA88BA
:1032000052B1824200D90246ADF800202046FFF7B5
:1032100006FFE8880028E6D12046FFF70DFFF8BD3D
:1032200070B5002300281ED00446002502E06D1C66
:10323000EDB2641C2678002EF9D1022404EB45047B
:1032400014801278CA545B1C0322CA5400245B1CED
:1032500006E0CA545B1CDAB28C54521CD3B2401C38
:103260000278002AF5D170BD01004FF0000004D0B3
:10327000012901D0022901D00220704701207047A6
:10328000D0F8B802002101730846704770B50446B3
:10329000812100F0BBF80025E562D4F8B80218B12E
:1032A00000F01BFCC4F8B852002070BD0A21018058
:1032B00000487047300100202221018000487047FB
:1032C000B80000202221018000487047DC00002067
:1032D00022210180004870470001002010B50446FB
:1032E00009230322812100F082F90120E0621020ED
:1032F00000F0F4FBC4F8B80218B1002101730846CD
:1033000010BD022010BD000038B503460022D0F8E1
:10331000B802ADF8002014460A7812F0600216D008
:10332000202A4AD14A78022A0ED0032A06D00A2A35
:1033300006D00B2A41D18978016042E001222BE0BE
:103340004988090A41603CE00122011D25E04A78D4
:1033500032B1062A0BD00A2A23D00B2A2DD128E01D
:1033600093F89C02032828D10222694615E0488878
:103370002222B2EB102F05D1CA88792A00D97922EE
:10338000124809E02122B2EB102F16D10F48CA884B
:103390001838092A00D9092201461846FFF73FFECE
:1033A0000FE093F89C22032A07D1012200F10801C3
:1033B000F3E793F89C22032A05D01846FFF719FE7D
:1033C0000224204638BD89788160FAE73C0100205C
:1033D00010B580B1D0F8B43213B10023C0F8B432C4
:1033E00009B1C0F8B012012180F89C12027000F0FF
:1033F000BBF8002010BD022010BD10B5D0F8C002EF
:10340000FDF711FABDE81040FFF72EBF10B5D0F858
:10341000C002FDF7E3F9BDE81040FFF725BF2DE935
:10342000F0411746044651B1D4F8B40242691AB1CA
:1034300094F89C02032851D00220BDE8F081D4F812
:103440009432002504F11400022B03D0042B3AD04F
:10345000C3B33CE0D0E903639E4207D9F11AC160CF
:103460008AB239462046FFF7BCFD12E08068B0FB07
:10347000F3F103FB110199B9984211D3D4F89812D2
:1034800088420DD2002211462046FFF7AAFDC4F85B
:10349000985200231A461946204600F0B4F816E068
:1034A000D4F8B402C16829B194F89C02032801D170
:1034B000204688478021204600F025F92046FFF766
:1034C000A3FD04E0FFE78021204600F01CF994F8FA
:1034D000A002012804D184F8A05201E020469047C0
:1034E0000020AAE770B51546044649B1D4F8B402E5
:1034F00082691AB194F89C02032830D0022070BD72
:10350000D4F8941204F5AA70032902D005291ED01C
:1035100027E0D0E903218A420BD9531AC360084639
:10352000834200D303469AB229462046FFF751FD55
:1035300017E0D4F8B402016929B194F89C02032879
:1035400001D1204688472046FFF776FD09E000209C
:103550000146C4F89402204600F0D5F801E0204668
:103560009047002070BD000010B517490446C1F80F
:10357000D402C0F8C0121548086008200871022063
:10358000887100208872C87208730846FDF7B4FC81
:1035900008B1FCF759FE0022D4F8C00218231146E6
:1035A00004F53074FDF7E8F85823002280212068E4
:1035B000FDF7E2F84FF48073002281212068FDF7C7
:1035C000DBF8002010BD0000C4070020005C0040B4
:1035D0000A0601F07F01D0F8C00201EB810100EB87
:1035E000C10001D5807C704790F85201704710B53A
:1035F0001C461346D0F8C0022246FDF750FBBDE83A
:103600001040FFF731BE10B5D0F8C002FDF773FBD4
:10361000BDE81040FFF728BE70B5002204464023E5
:103620001146FFF7E4FF40260125C4F864613346E4
:10363000002280212046C4F85851FFF7D8FF666267
:10364000A56184F89C520020C4F894026060C4F81C
:10365000A402D4F8B80228B1D4F8B4020021426818
:1036600020469047002070BD90F89C12042903D199
:1036700090F89D1280F89C120020704710B590F8C9
:103680009C12032904D1D0F8B412C96901B188474A
:10369000002010BD01740020704710B5D0F8C002A2
:1036A000FDF7C1FCBDE81040FFF7DEBD70B5044674
:1036B00000F52A70054600F04AF80120C4F894028B
:1036C000B4F8AE02C4F8980294F8A80210F01F01F2
:1036D0000AD001290DD0022910D000F08001204627
:1036E00000F011F8002070BD2946204600F09DF83A
:1036F000F8E72946204600F0C9F9F3E729462046B5
:1037000000F01CF9EEE710B5D0F8C002FDF70AFB97
:10371000BDE81040FFF7A8BD10B5D0F8C002FDF716
:103720009CFCBDE81040FFF79FBD90F89C1280F80C
:103730009D12042180F89C120020704710B5D0F82B
:10374000C002FDF727FBBDE81040FFF78DBD0A78EA
:1037500002704A7842708A78CB7802EB032242806A
:103760000A794B7902EB032282808A79C97902EBCC
:103770000121C18070470246002011B1C2F8B41285
:1037800070470220704710B5D0F8B42202241AB155
:103790001268904700B90024204610BD70B50E464F
:1037A0001E4D897804462970012931D894F89C026D
:1037B00002280BD003280FD031462046FFF719FC12
:1037C00029782046BDE87040FFF7FCBBD9B1032043
:1037D000616084F89C0209E071B16068884212D08F
:1037E000C1B22046FFF7EEFB297861602046FFF763
:1037F000CAFF02280CD006E0022084F89C02204672
:103800006160FFF7DFFB2046BDE87040FFF714BCA6
:1038100031462046BDE87040FFF7EBBB7C0000203E
:1038200010B5FFF779FF002010BD2DE9F0410A78AF
:10383000002612F0600208D0202A01D0402A70D160
:10384000D0F8B422926890476DE04B7800220125B1
:103850000A2B66D2DFE803F0405D65576508056511
:103860002C29FFF769FC5EE004468888D8B9C8882F
:10387000C8B94888802816D200F07F0794F89C02C7
:10388000032810D084F89E7239462046FFF705FFC2
:103890002046FFF7D1FB1FB1022084F89C0242E0D2
:1038A00084F89C523FE020463BE0FFF777FF3AE088
:1038B000CB88012B35D190F89C32012B04D0022B00
:1038C00002D0032B2DD104E08260012200F1080117
:1038D00016E00122011D13E090F89C22012A03D07A
:1038E000022A01D0032A1CD1CA88022A19D1C56034
:1038F000D0F8A41209B10321C160022200F10C0129
:10390000FFF78DFB0FE0498801290CD1C0F8A452C4
:1039100011E090F89C32012B08D0022B06D0032B2B
:1039200004D0FFF766FB3046BDE8F08149880129E5
:10393000F9D1C0F8A422FFF77FFBF4E72DE9F041AD
:103940000A46044610780027097910F060030AD06F
:10395000202B01D0402B50D1D4F8B40211468368FB
:10396000204698478FE0C0F34110012806D05078D8
:10397000D0B301282AD003283FD107E0D4F8B402FD
:10398000114683682046BDE8F041184794F89C0230
:10399000022802D0032872D10AE071B380296ED0C8
:1039A0002046FFF7B0FE80212046FFF7ACFE6AE01C
:1039B000508838B931B1802904D0D08810B9204658
:1039C000FFF7A1FE2046FFF737FB5CE094F89C026E
:1039D0000228E2D0032852D1508898BB4806F1D083
:1039E0002046FFF70AFDEDE7FFE794F89C0200266A
:1039F000022803D0032842D112E040E009B1802917
:103A00003DD1080601F07F0000EB800004EB80014F
:103A100001D5143101E001F5AA7102220E602AE0FD
:103A2000080601F00F0000EB800004EB80000AD5CF
:103A3000806920B301F07F0000EB800004EB80057B
:103A400014350BE01FE0D0F85801C0B101F07F0041
:103A500000EB800004EB800505F5AA7541B18029D3
:103A600006D02046FFF7B4FD10B10120286000E029
:103A70002E60022229462046FFF7D1FA03E01146C4
:103A80002046FFF7B6FA3846BDE8F08170B5054626
:103A900008780C4610F0600003D0202801D04028A0
:103AA00016D195F89C02012803D0022801D00328E2
:103AB0000ED1207901280BD8D5F8B40282682846A7
:103AC0009047E188014306D12846FFF7B5FA02E0A6
:103AD0002846FFF78EFA002070BD704700487047F7
:103AE000B00700202DE9F0470C78002630F824308C
:103AF00048F68F121340CA78002A78D0012A7CD069
:103B0000022A02D0032A75D0012648F2800213430C
:103B100020F824300D7830F8253048F68F74234093
:103B20002B43134320F825300D7B48F2C00948F69B
:103B3000BF734CF2800A4BF68F77EDB3CD7891F8D6
:103B400000C0022D30F82C507DD048F68F6805EA71
:103B50000805154320F82C50B0F8505091F800C0DB
:103B6000054405EB0C15B1F808C02CF0010CA5F8C4
:103B700000C4B0F8505091F800C0054405EB0C1596
:103B8000B1F80AC02CF0010CA5F808C44D78002D3E
:103B90007ED00D7830F825C05FEA4C4C07D530F860
:103BA00025C00CEA040C4CEA0A0C20F825C091F858
:103BB00000C030F82C5000E022E06D0606D530F849
:103BC0002C50254045EA090520F82C50CC780D787A
:103BD000012C30F8254004EA03047CD084F0200353
:103BE000134320F82530C1E001E006E002E043F491
:103BF00000738AE743F4C06387E743F4806384E794
:103C00004D784DB3B0F850500F78054405EB0715CB
:103C1000CF8827F00107A5F800740F7830F82750F7
:103C20006D0606D530F82750254045EA090520F8ED
:103C30002750CC78012C07D00C7830F8241019408C
:103C400081F0200104E064E00C7830F82410194081
:103C5000114320F8241090E0B0F850300D78034460
:103C600003EB0513CD8825F00105A3F80854B0F83F
:103C700050300D78034403EB0513B3F80C54C5F32F
:103C80000905A3F80C540D6903F20C433E2D00E026
:103C900045E00BD94FEA551CED0601D1ACF1010C02
:103CA0001D884FF4004848EA8C2C0BE035B34FEAEE
:103CB000550CED0701D00CF1010C1D884FF6FF7873
:103CC00008EA8C2C45EA0C051D800D7830F825306B
:103CD0005B0408D500E046E030F82530234043EA95
:103CE0000A0320F82530097861B130F821303B40D3
:103CF00083F40053134320F821303EE01D8845F43F
:103D00000045E1E70188394081F4405111430180C9
:103D100033E0254048F2801845EA08051AE791F893
:103D200000C030F82C506D0406D530F82C502540DA
:103D300045EA0A0520F82C5091F800C030F82C50C4
:103D40006D0606D530F82C50254045EA090520F8C7
:103D50002C500D7830F825403C4084F440541443F6
:103D600020F8254070E7144320F825400B7830F800
:103D700023103940114320F823103046BDE8F08766
:103D8000002070472DE9F04391F80C804F780A78B5
:103D900048F6BF7C4BF68F7948F2800348F2C005A5
:103DA0004CF2800648F68F74B8F1000F28D0002F2F
:103DB00030F822704FEA474748D0002F05DA30F834
:103DC00022702740374320F822700A7830F822709A
:103DD0007F0605D530F8227027402F4320F8227047
:103DE0000D7830F825202240324320F825200C7829
:103DF00030F8242002EA0C021A4320F824201AE0AA
:103E00007FB130F82260760605D530F82260264072
:103E10002E4320F822600A7830F8221001EA0C01C3
:103E20000EE030F822506D0405D530F822502540C0
:103E3000354320F822500A7830F8221001EA0901AF
:103E4000194320F822100020BDE8F083002F05DA86
:103E500030F822702740374320F822700A7830F873
:103E60002260760605D530F8226026402E4320F8E1
:103E700022600E7830F8262022402A4320F826209F
:103E80000C7830F8242002EA09021A4320F8242092
:103E9000C1E70020704700207047012120F8401F33
:103EA00000210180818001820846704730F8401F60
:103EB00021F43F410180002070470020704730B559
:103EC0000A7BB2BB4A7848F68F7548F28004C2B1CB
:103ED0000B7830F82320520607D530F823202A40EB
:103EE00048F2C0052A4320F82320CA78012A20D0AE
:103EF0000A7830F8221048F6BF73194081F020018B
:103F000014E00A7830F822305B0407D530F822300C
:103F10002B404CF280052B4320F822300A7830F8F1
:103F200022104BF68F73194081F44051214320F841
:103F30002210002030BD10B54A780978002A48F2D6
:103F4000800330F8212005D048F6BF74224082F06B
:103F5000100204E04BF68F74224082F480521A4320
:103F600020F82120002010BD2DE9F0470D464B78A8
:103F7000097B04464FF0000948F68F7248F2800A28
:103F80004FF400474FF6FF78012B09D000296FD07E
:103F9000E87802286DD001286CD00120BDE8F087B8
:103FA000AE692869864200D9064691B1E9780229AE
:103FB0001ED0286A801B2862287834F82010490611
:103FC000B4F85010214401EB001073D5A0F80C6434
:103FD00016E1B3B2EA882046696900F067FAB4F8DE
:103FE00050002978204400EB0110A0F804640DE192
:103FF000296A814277D9297834F82100104048F2A3
:104000008012104324F82100286A801B2862287837
:1040100034F820104906697871D511B101292AD0E8
:1040200030E0B4F85010214401EB0010B0F80C144B
:10403000C1F30901A0F80C1400F20C403E2E07D980
:104040007109F20600D1491E028847EA812107E082
:104050004EB17108F20700D0491C028808EA81219C
:104060000A4302800EE0018841F40041018009E02A
:10407000F1E020E195E1B4F85020111901EB0010B6
:10408000A0F80C646A89B3B22046696900F00EFAA0
:104090006869304468612969286A884202D9801BAE
:1040A000286202E00646C5F82090687818B1012819
:1040B0002BD032E02FE0B4F850002978204400EBF8
:1040C0000110B0F80414C1F30901A0F8041400F2BF
:1040D00004403E2E08D97109F20600D1491E02881B
:1040E00047EA812108E0A1E056B17108F20700D04B
:1040F000491C028808EA81210A4302800DE00EE093
:10410000018841F40041018007E0B4F850002978AB
:10411000204400EB0110A0F804642A8971E011B179
:10412000012927D02DE0B4F85010214401EB0010F4
:10413000B0F80414C1F30901A0F8041400F204401B
:104140003E2E07D97109F20600D1491E028847EABE
:10415000812107E04EB17108F20700D0491C0288A6
:1041600008EA81210A4302800BE0018841F4004102
:10417000018006E0B4F85010214401EB0010A0F8D3
:1041800004642A89B3B22046696900F08FF968692E
:10419000304468612969286A884202D9801B2862F4
:1041A00002E00646C5F82090687810B1012836D0A4
:1041B00026E0B4F850002978204400EB0110B0F854
:1041C0000C14C1F30901A0F80C1400F20C403E2EAF
:1041D00007D97109F20600D1491E028847EA8121F8
:1041E00007E04EB17108F20700D0491C028808EAC6
:1041F00081210A43028003E0018841F400410180EB
:104200006A89B3B22046696900F050F9297834F818
:10421000210048F6BF72104080F030000FE1B4F882
:1042200050100819297800EB0110CFE62A7834F8ED
:10423000220048F68F63184040EA0A0024F8220062
:10424000B4F850002A78204400EB02108BB2A0F89A
:1042500004342A89D6E7A9692869814202D9091A52
:10426000A96102E00846C5F81890B4F850102A7801
:10427000214401EB0211B1F80C24C2F30902A1F8A8
:104280000C2401F20C413E287DD94209C00600D120
:10429000521E088847EA82220AE0088840F400405B
:1042A00007E04208C00700D0521C088808EA8222B2
:1042B00010430880BBE033BBB4F850002978204499
:1042C00000EB0110B0F80414C1F30901A0F80414C4
:1042D000296900F204403E2907D94B09C90600D1DB
:1042E0005B1E018847EA832307E041B14B08C907F9
:1042F00000D05B1C018808EA8323194302E001888F
:1043000041F400410180687810B1012828D030E0E4
:10431000B4F850002978204400EB0110B0F80C14D8
:10432000C1F30901A0F80C14296900F20C403E29E0
:1043300007D94B09C90600D15B1E018847EA8323D0
:1043400007E041B14B08C90700D05B1C018808EAAF
:104350008323194302E0018841F40041018008E011
:10436000B4F850100819297800EB0110298AA0F838
:104370000C14E869C0B3297834F82100430401D54E
:10438000430605D400E046E044F2400318424ED113
:1043900034F82100104048F2C002104324F82100F4
:1043A00045E0A9692869814202D9091AA96102E098
:1043B0000846C5F8189013BBB4F850102A78214469
:1043C00001EB0211B1F80424C2F30902A1F804249C
:1043D00001F204413E2808D94209C30600D1521E09
:1043E0000B8847EA822208E021E078B14208C3073F
:1043F00000D0521C0B8808EA822213430B80697894
:1044000000293FF42EAF012909D010E00A8842F4B8
:1044100000420A80F3E700287FF443AF3DE7B4F899
:10442000502011192A7801EB0211A1F80C04297807
:1044300034F821004BF68F72104080F4405040EA6F
:104440000A0024F821000020A8E50021A0F844106B
:104450004FF43F41A0F84010002070470148FCF79E
:10446000B1BC0000C4070020B0F844007047000051
:1044700010B500EB42005C0800F5806009D000BF79
:1044800030F8042B01F8012B120A01F8012B641EED
:10449000F6D1DA0701D00088087010BD00207047FF
:1044A00011B98021A0F84C100020704710B55B1C9A
:1044B00000EB42005B0800F5806009D011F8012B89
:1044C00011F8014B42EA042220F8042B5B1EF5D1BF
:1044D00010BDFEE70FB4054B10B503A9044A0298BE
:1044E00000F028F810BC5DF814FB000089460008B5
:1044F000B80100200907090E002804DB00F1E020C4
:1045000080F80014704700F00F0000F1E02080F800
:10451000141D704702E008C8121F08C1002AFAD112
:1045200070477047002001E001C1121F002AFBD133
:10453000704700002DE9FF4F89B09B4604460025D7
:1045400006E025280BD05A460B999047641C6D1C39
:1045500020780028F5D10DB02846BDE8F08F00275F
:10456000B8460122474900E0074314F8013F203BC9
:1045700002FA03F00842F7D120782E2819D114F856
:10458000010F47F004072A280ED06FF02F02207881
:10459000A0F1300109290CD808EB880102EB410198
:1045A00000EB0108641CF2E70A98641C50F8048BC5
:1045B0000A9020780028CED0642808D0692806D038
:1045C00075281ED05A460B9990476D1C58E00A99E1
:1045D0004FF00A0901C90A91002802DA40422D2150
:1045E00002E0390504D52B218DF82010012103E0CC
:1045F000F90704D02021F7E78A4608AE0DE0002134
:10460000FAE70A994FF00A0901C90A91F7E7494602
:10461000FBF79AFD303106F8011D0028F7D1ADEB0C
:10462000060000F12009780701D44FF00108C845C1
:1046300002DDA8EB090000E000208046002706E02C
:1046400008A85A46C05D0B9990476D1C7F1C5745C2
:10465000F6DB04E030205A460B9990476D1CB8F108
:104660000001A8F10108F5DC05E016F8010B5A4637
:104670000B9990476D1CB9F10001A9F10109F4DC17
:10468000641C65E70928010013B54FF6FF7301228A
:1046900069460248FDF729FE00981CBDA4020020CF
:1046A0000EB5FBF7D5FFFEF7CEFA1E24FDF78CFE04
:1046B000FDF72CFFFDF77AFFFDF702FFFDF75AFF2C
:1046C000FDF7B6FFFBF7A6FD1D4EDFF870804FF437
:1046D000807706F1080539464046FBF7A1FFB8B1DF
:1046E00014343C2C00D90A245FFA84F4FBF7AEFDA5
:1046F000706002AA01A96846FDF7D0FF9DF8080086
:1047000050B19DF80000A8709DF80400404205E0FB
:104710002046FDF76DFFE9E70020A870E8703079CA
:10472000074A404228710923083281210548FFF7D2
:1047300005F80A20FBF702FECDE700000008014063
:1047400000000020EC02002001020203040506071D
:1047500008090A0B0C0D0E0F1010000000000000DD
:10476000000001020304060708090000000001021E
:10477000030400009447000800000020BC01000072
:10478000980100088C480008BC010020E40C0000DF
:1047900024450008818202A2011371301B08A10484
:1047A0001AAD041AD5041301311B0851081A7D04EF
:1047B0003F04030904120137164083042B571D02DE
:1047C0000102033C031A1A03295B821053127A1365
:1047D000DD321B088D0413093382081A8110011081
:1047E0001AC5141AB9041AD1042AAD3013022213BF
:1047F00001011DE03209045929751509211101141F
:104800000122791607058103091A0A12091E240AD2
:1048100021072429486912314B0A06F429CC1010CB
:1048200005010906A1018501050719E029E7151809
:10483000132501950875018102950175088103957D
:10484000067508141AFF1E112C2965811E280B05F8
:10485000750105081901290591241D039103C04321
:104860001A024315020901A12B05091B3947192911
:1048700039471C0381032270123009310938158130
:0C488000257F750895038106C0C000006C
:04000005080000ED02
:00000001FF
